:020000040800F2
:10000000780E0020B1020008C77200084D6B00088E
:10001000C57200084D0900088D8700080000000027
:10002000000000000000000000000000CB7200088B
:100030008109000800000000C9720008CD720008A4
:10004000CB020008CB020008CB020008CB0200085C
:10005000CB020008CB020008CB020008CB0200084C
:10006000CB020008CB020008CB02000851090008AF
:100070005D0900086909000875090008CB0200083D
:10008000CB020008CB020008CB020008CB0200081C
:10009000CB020008CB020008CB020008CB0200080C
:1000A000CB020008CB020008CB020008CB020008FC
:1000B000CB020008CB020008CB0200085D6B0008F1
:1000C000516B0008CB020008CB020008CB020008ED
:1000D000CB020008CB020008758700088187000862
:1000E000CB020008CB02000800000000CB02000891
:1000F000CB020008CB020008CB020008CB020008AC
:10010000CB020008CB020008CB020008CB0200089B
:100110006D760008CB0200086D7300087973000843
:10012000CB020008CB020008CB020008CB0200087B
:10013000CB020008CB020008CB020008CB0200086B
:1001400000000000000000000000000000000000AF
:10015000CB020008CB020008CB020008CB0200084B
:10016000CB020008CB020008CB020008CB0200083B
:10017000CB020008CB020008CB0200080000000000
:10018000CB020008CB020008CB020008CB0200081B
:10019000CB020008CB020008CB020008CB0200080B
:1001A000CB020008CB020008CB020008CB020008FB
:1001B000CB020008CB020008CB020008CB020008EB
:1001C000CB020008CB020008CB020008CB020008DB
:1001D000CB020008CB020008CB020008CB020008CB
:1001E000CB020008CB020008CB020008CB020008BB
:1001F000CB020008CB020008CB020008CB020008AB
:10020000CB020008CB020008CB020008CB0200089A
:10021000CB020008CB020008CB020008CB0200088A
:10022000CB020008CB020008CB020008000000004F
:10023000CB020008CB02000800000000CB0200083F
:10024000CB020008CB020008CB020008CB0200085A
:10025000CB020008CB020008CB020008CB0200084A
:10026000CB020008CB020008CB020008CB0200083A
:10027000CB020008CB020008CB02000800000000FF
:10028000CB020008CB020008CB02000800000000EF
:1002900000000000CB020008DFF810D000F08EFA5A
:1002A00000F074F80048004753B80008780E0020AA
:1002B0000648804706480047FEE7FEE7FEE7FEE700
:1002C000FEE7FEE7FEE7FEE7FEE7FEE7D172000885
:1002D000990200082DE9F05F0546002092469B46F2
:1002E00088460646814640241BE02846414647464C
:1002F000224600F082F853465A46C01A914110D364
:1003000011461846224600F069F82D1A67EB0108DD
:100310004F4622460120002100F060F817EB00094B
:100320004E41201EA4F10104DFDC484631462A4636
:100330004346BDE8F09F40EA01039B0703D009E074
:1003400008C9121F08C0042AFAD203E011F8013BC1
:1003500000F8013B521EF9D27047D2B201E000F81A
:10036000012B491EFBD270470022F6E710B5134659
:100370000A4604461946FFF7F0FF204610BD421C0E
:1003800010F8011B0029FBD1801A704770B5054C8D
:10039000054D03E0206820448047241DAC42F9D17C
:1003A00070BD00005CBA000864BA000800F0F8B93B
:1003B00030B50B46014600202022012409E021FA35
:1003C00002F59D4205D303FA02F5491B04FA02F532
:1003D0002844151EA2F10102F1DC30BD202A04DB05
:1003E000203A00FA02F1002070479140C2F1200348
:1003F00020FA03F3194390407047202A04DB203A87
:1004000021FA02F00021704721FA02F3D040C2F134
:100410002002914008431946704700000348704786
:100420000248001D011F8860001D7047CC0000209D
:100430002DE9FE4F804681EA0300C00F0C46009074
:1004400021F0004123F00045B8EB0200A94105D29C
:100450004046214690461C460B46024623F000408B
:10046000104347D0270DC7F30A00C3F30A51029087
:10047000401A019040286BDAC3F3130040F4801B4C
:100480000098924620B10023D2EB030A63EB0B0BDA
:1004900001985946C0F140025046FFF79FFF0646BB
:1004A0000D4650465946019A00F09AF910EB0800A3
:1004B0006141002487EA115284EAE7731A4340D06D
:1004C000009A62B3019A012A4FEA075215DC001B19
:1004D00061EB02014FF0004202EA0752CDE900420F
:1004E000001C41F5801132462B4600F09AF903B00A
:1004F000BDE8F08F40462146F9E7001B61EB0201A1
:10050000001C41F5801300185B412018A2F500176C
:1005100047EB030140EAD570B6196D4111E06D0853
:100520004FEA360645EAC0754FEA0752001B61EBF9
:100530000201001C41F5801149084FEA3000001902
:10054000514132462B4603B0BDE8F04F00F05AB996
:100550000098012240000023D0EB020263EBE0731D
:10056000009821464FEAE074B8EB000061EB04010B
:10057000E9E783F000435BE781F0004158E72DE9AC
:10058000FE4F81EA030404F0004421F0004100948E
:100590004FF0000B23F0004350EA01045ED052EA12
:1005A00003045BD0C3F30A54C1F30A552C44A4F2EC
:1005B000F3340194A0FB0254C1F3130141F4801100
:1005C000C3F3130343F4801301FB024400FB034E07
:1005D000840A970A44EA815447EA8357A4FB0768D0
:1005E00002958D0A05FB07854FEA932C04FB0C54FA
:1005F0002705029D4FEA065847EA1637B5EB08056E
:100600006EEB070C870E920E47EA811742EA8312BF
:10061000A7FB0201B6EB0B0164EB00042B0D43EAD0
:100620000C335E1844EB1C50DA465146E7FB0201DE
:10063000C5F313044FEA0B3343EA14534FEA043271
:10064000019C43EA0603A4F10C040294009CCDE94A
:1006500000B400F0E6F803B0BDE8F08F00200146DA
:10066000F9E72DE9F04D81EA030404F0004B21F095
:10067000004514464FF0000A23F0004150EA0502FD
:1006800020D054EA01021DD0C5F30A570246C5F333
:100690001303C1F31300C1F30A5640F4801543F469
:1006A0008013A7EB0608101BD64608F2FD3873EB43
:1006B000050002D308F1010801E092185B41B8F18E
:1006C000000F03DA00200146BDE8F08D00204FF452
:1006D0008011064684460EE0171B73EB050705D311
:1006E000121B63EB050306434CEA010C49084FEA71
:1006F000300092185B4150EA0107EDD152EA030045
:1007000012D082EA040083EA0501084305D0101BD9
:10071000AB4106D20122002306E000224FF0004345
:1007200002E06FF0010253101AEB06004CEB085187
:1007300010EB0A0041EB0B01BDE8F04D00F062B890
:10074000C1F30A52C1F3130140F2FF3341F48011A7
:100750009A4202DA00200146704740F233439A423F
:10076000A2F2334202DC5242FFF747BEFFF736BE29
:1007700030B5041E71F1000404DB4FF00044404228
:1007800064EB0101141E73F1000405DB1C464FF0FD
:100790000043524263EB0403994208BF904230BDCC
:1007A00010B500F090F8016919B100220261884784
:1007B00001E080688047AFF300800000064C074DE1
:1007C00006E0E06840F0010394E807009847103421
:1007D000AC42F6D3FFF764FD3CBA00085CBA0008EF
:1007E000202A06DBCB17203A41FA02F043EAE073F5
:1007F00006E041FA02F3D040C2F1200291400843E2
:100800001946704710B5141E73F1000408DA401C35
:1008100041F1000192185B411A4301D120F001001F
:1008200010BD2DE9F04D92469B4611B1B1FA81F20F
:1008300002E0B0FA80F220329046FFF7CFFD044686
:100840000F4640EA0A0041EA0B0153465A46084364
:1008500013D0114653EA010019D0C8F140025046A6
:10086000FFF7CBFD05460E46504659464246FFF778
:10087000B5FD084305D0012004E020463946BDE817
:10088000F08D0020054346EAE0762C4337430A9872
:100890006305E40AA0EB08000022FD0A44EA47547D
:1008A0000A3002D500200146E9E701051019694127
:1008B000DDE9084500196941BDE8F04DA2E70000F7
:1008C00010B5AFF3008070B5FFF7AAFD04680546C8
:1008D000A4B920200AF0E2FF040011D00949002049
:1008E0002C60C4E900010849A160207320616061A7
:1008F0000649A06109B100F00BF8E061204670BD27
:10090000AFF3008000000000C108000800000000F4
:1009100010B588200AF0C2FF002801D00021017024
:1009200010BD802902D808B1017809B100207047B4
:10093000012100F8081B704718B100F1080291422C
:1009400001D000207047002101707047FEE70000D1
:10095000014800F0FDB800002C010020014800F023
:10096000F7B80000D8050020014800F0F1B80000F9
:10097000A4010020014800F0EBB800005006002060
:10098000704770472DE9F05F28B190F835100229C3
:1009900004D0802141650120BDE8F09F634A634B8C
:1009A000624F183201683033614C624DB942DFF852
:1009B00088A1DFF88891DFF888B1DFF88881DFF857
:1009C00088E1624E32D0914230D099422ED0A1427D
:1009D0002CD0A9422AD0514528D0494526D0594586
:1009E00024D0C446614521D0DFF858C10CF1180C61
:1009F00061451BD0DFF84CC10CF1300C614515D0BE
:100A0000DFF844C1ACF1300C61450FD0DFF838C1DC
:100A1000ACF1180C614509D0714507D0DFF828C149
:100A20000CF1180C614501D0B1422ED14FF0040CED
:100A300080F835C0B94223D0914221D099421FD0CD
:100A4000A1421DD0A9421BD0514519D0494517D00C
:100A5000594515D0414513D03A48183081420FD03E
:100A60003848303081420BD037483038814207D087
:100A700035481838814203D0714501D032481830CA
:100A8000086820F0010008604DE0D1F8008028F0EF
:100A90000E08C1F800800168B9421ED091421CD0F6
:100AA00099421AD0A14218D0A94216D0514514D06B
:100AB000494512D0594510D0224A91420DD0214AC1
:100AC0001832914209D01F4A3032914205D01E4A55
:100AD000303A914201D01C4A183A0A6822F00102C9
:100AE0000A60026E0121136823F48073136090F88A
:100AF0005C30826D03F01F0301FA03F35360D0E909
:100B000019235360C26E32B1136823F480731360EB
:100B1000D0E91C2353600023026D80F8343080F844
:100B2000351002B19047002036E700001000024067
:100B3000580002407000024088000240A0000240BD
:100B4000B80002401004024088040240B804024089
:100B50002DE9FC5F0446FA4E0020DFF8E4830090A4
:100B60004FF41652F74808F11808A56DDFF8D0A326
:100B7000DFF8CCB301680AF1300A20680BF1480BAA
:100B8000B1FBF2F1B04201912F68D5F800C0DFF857
:100B9000B89336D04146884233D0504531D058457D
:100BA0002FD0E749603188422BD0E549783188421F
:100BB00027D0E3499031884223D0E149A8318842C7
:100BC0001FD048451DD0E0491831884219D0DE4970
:100BD0003031884215D0DC4A4832904211D0DA498F
:100BE000603188420DD0DFF860E30EF1780E704579
:100BF00007D0D54B9033984203D0D349A8318842CF
:100C00007ED194F85C20082102F01F0201FA02F262
:100C10003A424BD0B04233D0404531D050452FD02E
:100C200058452DD0C64A6032904229D0C44A783205
:100C3000904225D0C24A9032904221D0C04AA83278
:100C400090421DD048451BD0BF4A1832904217D061
:100C5000BD4A3032904213D0BB4A483290420FD046
:100C6000B94A603290420BD0B74A7832904207D0EE
:100C7000B54A9032904203D0B34AA832904203D191
:100C8000026802F0040202E0026802F008026AB19F
:100C9000026822F00402026094F85C0000F01F0079
:100CA0008140A960606D40F00100606594F85C00CF
:100CB000012100F01F008140394241D02068B0423C
:100CC00035D0404533D0504531D058452FD09C4A7F
:100CD000603290422BD09A4A7832904227D0984A7C
:100CE0009032904223D0964AA83290421FD0484575
:100CF0001DD0954A1832904219D0934A303200E004
:100D0000B2E1904213D0904A483290420FD08E4ABE
:100D1000603290420BD08C4A7832904207D08A4A97
:100D20009032904203D0884AA83290427ED14069E6
:100D300010F0800F04D0A960606D40F00200606583
:100D400094F85C00042100F01F00814039423FD03C
:100D50002068B04233D0404531D050452FD058455F
:100D60002DD0774A6032904229D0754A783290422D
:100D700025D0734A9032904221D0714AA8329042D5
:100D80001DD048451BD0704A1832904217D06E4A89
:100D90003032904213D06C4A483290420FD06A4AA7
:100DA000603290420BD0684A7832904207D0664A4F
:100DB0009032904203D0644AA83290424FD10068EA
:100DC00010F0020F04D0A960606D40F0040060656F
:100DD00094F85C00102100F01F008140394259D086
:100DE0002068B04235D0404533D0504531D05845C9
:100DF0002FD0534A603290422BD0514A78329042E1
:100E000027D04F4A9032904223D04D4AA832904288
:100E10001FD048451DD04C4A1832904219D04A4A3A
:100E20003032904215D0484A483200E015E09042F6
:100E30000FD0454A603290420BD0434A78329042FC
:100E400007D0414A9032904203D03F4AA8329042A4
:100E500007D1006800F0080006E0006870E700684D
:100E6000B6E7006800F00400A0B1A960206801683E
:100E7000490304D50068000308D5A16C07E00168A8
:100E8000C90503D4016821F008010160216C09B192
:100E90002046884794F85C00202100F01F00814024
:100EA000394278D02068B04233D0404531D05045E7
:100EB0002FD058452DD0224A6032904229D0204A66
:100EC0007832904225D01E4A9032904221D01C4A5E
:100ED000A83290421DD048451BD01B4A1832904280
:100EE00017D0194A3032904213D0174A48329042F4
:100EF0000FD0154A603290420BD0134A783290429C
:100F000007D0114A9032904203D00F4AA832904243
:100F100003D1006800F0100002E0006800F0020059
:100F2000A0B3A96094F835000428206801680DD0AA
:100F300049037DD50068000329D4616C28E00000D6
:100F4000100002400C0000201004024021F01601A5
:100F500001602068416921F080014161206C08B97D
:100F6000A06C20B12068016821F00801016094F8AC
:100F70005C303F21002203F01F0301209940A9604B
:100F800084F8342084F83500216D66E003E0E16BDD
:100F900009B120468847606D00287DD0606DC0078C
:100FA0005AD02068042184F83510B0422BD0404537
:100FB00029D0504527D0584525D09E49884222D077
:100FC0009C49183188421ED09A49303188421AD043
:100FD00098494831884216D0484514D096498842ED
:100FE00011D09549183188420DD09349303188424B
:100FF00009D091494831884205D08F4960318842F3
:1010000001D08D497831016821F00101016020682B
:101010000099019A491C0091914202D80168C907C0
:10102000F6D1002184F834100068C00711D000E028
:1010300001E003200EE00168C905A8D4036800227E
:10104000012123F01003036084F8342084F8351064
:101050009DE7012084F83500E16C00291CD002B026
:101060002046BDE8F05F0847744988421DD07349A7
:101070001431884219D071492831884215D06F49FE
:101080003C31884211D06D49503188420DD06B49B6
:101090006431884209D000E086E0684978318842AE
:1010A00003D066498C3188427ED194F85C80042755
:1010B000016808F01F0807FA08F717EA0C0F0097F5
:1010C00046D04F0744D500980F04686003D5C80385
:1010D0003CD4A16CC1E7880638D42068B0422DD03A
:1010E00054494839884229D0504527D0584525D001
:1010F0005049884222D04F49183188421ED04D496C
:10110000303188421AD04B494831884216D0484580
:1011100014D04949884211D04749183188420DD02E
:1011200090420BD044494831884207D0704505D0E1
:10113000984203D040499031884203D1016821F0A0
:10114000080102E0016821F004010160216C84E7DC
:10115000022707FA08F717EA0C0F00974ED08F07FF
:101160004CD500980F04686003D5C80344D4616C63
:1011700073E7880640D42068B0422FD02D49483903
:1011800088422BD0504529D0584527D0294988423C
:1011900024D028491831884220D02649303188424D
:1011A0001CD02449483100E041E0884216D048452F
:1011B00014D02149884211D01F49183188420DD0DE
:1011C00090420BD01C494831884207D0704505D069
:1011D000984203D018499031884203D1016821F028
:1011E000140102E0016821F00A010160002184F885
:1011F0003410012084F83500E16B2EE7082202FA52
:1012000008F212EA0C0F12D0090710D5016821F07C
:101210000E01016094F85C100120002201F01F0112
:1012200000FA01F16960606584F8342012E7BDE8D6
:10123000FC9F00007000024028040240085402583D
:101240002DE9F84F044600F09BFD002C00907DD066
:10125000FE4D2068FE4FDFF8FC83A842DFF8F893CC
:10126000DFF8F8A3DFF8F8B353D0B84251D04045C7
:101270004FD048454DD050454BD0584549D0F849FE
:101280001831884245D0F6493031884241D0F5497D
:1012900088423ED0F349183188423AD0F149303182
:1012A000884236D0EF494831884232D0ED4960312A
:1012B00088422ED0EB49783188422AD0E9499031D2
:1012C000884226D0E749A831884222D0E6498842A0
:1012D0001FD0E549143188421BD0E34928318842A8
:1012E00017D0E1493C31884213D0DF495031884260
:1012F0000FD0DD49643188420BD0DB497831884218
:1013000007D0D9498C31884203D0D421D7A00AF024
:101310009FFAA06838B1402805D0802803D0D52195
:10132000D2A00AF095FAE068B0F5007F04D018B1B9
:10133000D621CEA00AF08CFA2069B0F5806F04D0D7
:1013400018B1D721C9A00AF083FA00E0DBE1606997
:1013500048B1B0F5006F06D0B0F5805F03D0D8215A
:10136000C2A00AF075FAA06948B1B0F5005F06D0D6
:10137000B0F5804F03D0D921BCA00AF069FAE0692A
:1013800070B1B0F5807F0BD0202809D0B0F5802F48
:1013900006D0B0F5402F03D0DA21B4A00AF058FAF5
:1013A000206A60B1B0F5803F09D0B0F5003F06D0AB
:1013B000B0F5403F03D0DB21ACA00AF049FAA349C5
:1013C0004FF0010620684FF00005884230D0B84247
:1013D0002ED040452CD048452AD0504528D05845DD
:1013E00026D09F491831884222D09D493031884209
:1013F0001ED09C4988421BD09A491831884217D088
:1014000098493031884213D09649483188420FD0EC
:101410009449603188420BD092497831884207D094
:1014200090499031884203D08E49A831884274D1C6
:101430006068732803D9DF218CA00AF009FA606A7A
:10144000002831D0042805D0E02188A00AF000FA55
:10145000606A48B3A06A48B1012807D0022805D0C5
:10146000032803D0E52181A00AF0F2F9E06A60B117
:10147000B0F5000F09D0B0F1807F06D0B0F1C07F89
:1014800003D0E62179A00AF0E3F9206B60B1B0F552
:10149000001F09D0B0F5800F06D0B0F5C00F03D003
:1014A000E72172A00AF0D4F920680221674A84F883
:1014B000345084F8351090422AD0B84228D04045A4
:1014C00026D0484524D0504522D0584520D06449E4
:1014D000183188421CD062493031884218D06149A5
:1014E000884215D05F491831884211D05D493031AA
:1014F00088420DD05B494831884209D05949603152
:10150000884205D057497831884201D055499031F9
:10151000016821F0010101600CE051E000F030FCB5
:101520000099401A052805D920216165032084F817
:101530003500E8E020680068C007EFD104F108003A
:101540002168D4E9053C894685C809681043D4E977
:1015500007281F43636A3843524F40EA0C00104388
:10156000394040EA0800042B40EA010003D1D4E9E5
:101570000B1211430843C9F800002068676A4069EC
:10158000042F20F0070047EA00070CD1D4E90A0134
:10159000074341B1204608F011FB20B140206065AF
:1015A00084F83560AFE020684761204608F0FEFC13
:1015B00094F85C203F2102F01F029140816090E08E
:1015C000294988421BD028491431884217D026491E
:1015D0002831884213D024493C3188420FD0224917
:1015E000503188420BD020496431884207D01E49CF
:1015F0007831884203D01C498C3188427ED16068A2
:10160000112804D919A040F249110AF021F984F8EF
:101610003450022084F835002068A16881460068B3
:101620004029214A00EA020063D0802963D00022C9
:10163000D4E90378D4E9053142EAD70242EAD8086E
:10164000094A48EAD308524214232FE0100002400E
:101650002800024040000240580002407000024052
:101660008800024010040240085402582E2E2F44D5
:101670007269766572732F53544D333248377878D8
:101680005F48414C5F4472697665722F5372632FD5
:1016900073746D3332683778785F68616C5F646D3E
:1016A000612E63003F8010FE0F00FEFFD4E9077C2F
:1016B00048EAD10141EAD70141EA1C110143C9F8C6
:1016C000001020681044B0FBF3F08000E065204675
:1016D00008F06CFC94F85C1001F01F0106FA01F1AF
:1016E0004160204608F064FDA06880280ED00EE01E
:1016F00004E010229CE74FF4804299E740206065A7
:10170000032184F835100120BDE8F88F6560216E53
:1017100020790860D4E9190141606068401E0728FB
:1017200008D8204608F092FDE06E0560D4E91C015F
:10173000416002E0E56625676567656584F83560A8
:101740000020E1E72DE9FF4F81B0044600214FF66C
:10175000FF7204980091401E904204D375A040F29D
:1017600082210AF075F8A4B194F83400012812D04F
:1017700094F835200120002184F83400012A0CD08F
:1017800084F83410C20200906265009805B0BDE88C
:10179000F08F0120FAE70220F8E7744A022320685C
:1017A00084F835309042724D6165724E724FDFF8A9
:1017B000CC81DFF8CC91DFF8CCA1DFF8CCB126D01A
:1017C000A84224D0B04222D0B84220D040451ED0FA
:1017D00048451CD050451AD0584518D06B4988420E
:1017E00015D06A491831884211D068493031884291
:1017F0000DD066494831884209D064496031884239
:1018000005D062497831884201D060499031016841
:1018100021F0010101600DF1080C20469CE80E004A
:1018200007F064F85149206888422CD0A8422AD099
:10183000B04228D0B84226D0404524D0484522D0D6
:10184000504520D058451ED0504A90421BD04F4A98
:101850001832904217D04D4A3032904213D04B4A42
:10186000483290420FD0494A603290420BD0474AEA
:101870007832904207D0454A9032904203D0434A92
:10188000A83290420CD1026822F01E0242F01602E9
:101890000260206C88B12068026842F008020BE008
:1018A000026822F00E0242F00A020260206C20B1AF
:1018B0002068026842F004020260206E0268D203CF
:1018C00003D5026842F480720260E06E18B10268CB
:1018D00042F4807202602068884226D0A84224D058
:1018E000B04222D0B84220D040451ED048451CD03E
:1018F00050451AD0584518D02449884215D023495C
:101900001831884211D02149303188420DD01F4909
:101910004831884209D01D496031884205D01B49B1
:101920007831884201D019499031016841F00101B4
:1019300001602AE72E2E2F447269766572732F5349
:10194000544D3332483778785F48414C5F44726970
:101950007665722F5372632F73746D3332683778E4
:10196000785F68616C5F646D612E630010000240F7
:10197000280002404000024058000240700002402F
:1019800088000240A0000240B8000240100402405B
:1019900070B5044600F0F4F90546601C02D0044816
:1019A0000078044400F0ECF9401BA042FAD370BD6B
:1019B000000000202DE9F84FDFF8C4920027DFF87F
:1019C000C4820D464845044621D0AF4884421ED00B
:1019D000AE4884421BD0AE48844218D0AD48844201
:1019E00015D0AD48844212D0AC4884420FD0AC48E8
:1019F00084420CD0AB48844209D0AB48844206D024
:101A0000AA48844203D0BB21A9A009F021FF28687D
:101A10000104090C01D0000C03D0BC21A4A009F0E2
:101A200017FF6868F8B101281DD011281BD00228C3
:101A300019D0122817D0AD49884214D0AC49884239
:101A400011D0AC4988420ED0AB4988420BD0AB498B
:101A5000884208D0AA49884205D0032803D0BD2176
:101A600093A009F0F5FEA868002807D00128FCD053
:101A70000228FAD0BE218EA009F0EAFEF9E001208A
:101A8000B840064000907DD06868022801D0122836
:101A90003BD14C4521D07C4884421ED07B488442B7
:101AA0001BD07B48844218D07A48844215D07A48AB
:101AB000844212D0794884420FD0794884420CD0B5
:101AC0007848844209D07848844206D077488442D6
:101AD00003D0CD2176A009F0BBFE28690F2803D9D9
:101AE000CE2173A009F0B4FEF80829690F2304EB96
:101AF00080024FEA477C106A4FEADC6C03FA0CF371
:101B0000984301FA0CF10143116203232A792068FA
:101B100079008A4602F0030203FA01FB02FA0AF294
:101B200020EA0B00024322606868012805D00228E1
:101B300003D0112801D012281CD1E86848B101282F
:101B400007D0022805D0032803D0E22158A009F0CD
:101B50007FFEA068E96820EA0B0001FA0AF1014360
:101B6000A16060682979009AC1F300119043B940DF
:101B700001436160E068A96820EA0B0001FA0AF1FC
:101B8000014300E074E0E1606868C00070D55D4822
:101B9000016841F002010160006827F0030202F1D0
:101BA000B04200F002000090B8070F21030FD2F8F6
:101BB000080499404C4520EA010001D100212DE0A4
:101BC00031498C4201D1012128E030498C4201D1B8
:101BD000022123E02E498C4201D103211EE02D4930
:101BE0008C4201D1042119E02B498C4201D10521FD
:101BF00014E02A498C4201D106210FE028498C4289
:101C000001D107210AE027498C4201D1082105E0D2
:101C100025498C4201D1092100E00A219940014364
:101C2000C2F80814D8F80000696820EA0600C90361
:101C300000D53043C8F80000D8F80400696820EAED
:101C40000600890300D53043C8F804004FF0B041C6
:101C50006A680868D20220EA060000D530430860AE
:101C60006A684868920220EA060000D5304348605E
:101C70007F1C2E6836FA07F07FF401AFBDE8F88FBD
:101C80000000025880000058000402580008025862
:101C9000000C025800100258001402580018025894
:101CA000001C025800200258002402580028025844
:101CB0002E2E2F447269766572732F53544D333232
:101CC000483778785F48414C5F4472697665722F77
:101CD0005372632F73746D3332683778785F68613D
:101CE0006C5F6770696F2E630000000000001111C7
:101CF000000021110000311100001211000022111A
:101D000000003211F444025870B50C001546064626
:101D100004D109A040F2AD1109F09AFD45B1012DA1
:101D200004D005A04FF4D77109F092FDB46170BDE5
:101D30002004B06170BD00002E2E2F4472697665BC
:101D400072732F53544D3332483778785F48414C83
:101D50005F4472697665722F5372632F73746D33AB
:101D600032683778785F68616C5F6770696F2E637F
:101D70000000000001480068000C70470010005C83
:101D800001488068704700000000002070B50D46D3
:101D900022490446006888420CD02149884209D073
:101DA0002049884206D02049884203D064211FA0E0
:101DB00009F04EFD35B1B5F5805F03D065211BA05C
:101DC00009F046FD94F84100202824D194F8400001
:101DD000012820D0012184F84010242084F84100FB
:101DE000202100222068036823F00103036020689B
:101DF000036823F480530360206803682B43036067
:101E00002068036843F00103036084F84110002058
:101E100084F8402070BD022070BD000000540040D6
:101E200000580040005C0040001C00582E2E2F443B
:101E30007269766572732F53544D33324837787810
:101E40005F48414C5F4472697665722F5372632F0D
:101E500073746D3332683778785F68616C5F6932AC
:101E6000635F65782E63000070B50D462049044617
:101E7000006888420CD01F49884209D01E49884218
:101E800006D01E49884203D092211DA009F0E0FC33
:101E90000F2D03D993211AA009F0DAFC94F8410020
:101EA000202822D194F8400001281ED0012184F876
:101EB0004010242084F8410020220023206801687B
:101EC00021F0010101602068016821F4706141EA9C
:101ED000052101602068016841F00101016084F87A
:101EE0004120002084F8403070BD022070BD000009
:101EF0000054004000580040005C0040001C0058A6
:101F00002E2E2F447269766572732F53544D3332DF
:101F1000483778785F48414C5F4472697665722F24
:101F20005372632F73746D3332683778785F6861EA
:101F30006C5F6932635F65782E630000704770479D
:101F400030B403689A691968D243D40509D4CC43E4
:101F5000240606D4456C4FF4807445F001054564B1
:101F6000DC6153050AD4CB431B0607D4446C4FF401
:101F7000806344F0080444640468E36192050AD471
:101F8000C943090607D4426C4FF4007142F00202C3
:101F900042640268D161416C11F00B0F02D030BC79
:101FA00006F0F6BB30BC70470268436B916912685B
:101FB000002B00D0184770477047000070B5040030
:101FC00064D05B49206888420DD05A4988420AD0C3
:101FD0005949884207D05949884204D058A04FF443
:101FE000EF7109F035FCA068B0F5806F04D354A000
:101FF00040F2DF1109F02CFCE068012806D002282D
:1020000004D04FF4F0714EA009F022FC206938B1E1
:10201000B0F5004F04D04AA040F2E11109F018FCDD
:102020006069FF2804D946A04FF4F17109F010FC53
:10203000A06990B1012810D002280ED003280CD03E
:1020400004280AD0052808D0062806D0072804D07E
:102050003BA040F2E31109F0FBFBE06938B1B0F5B9
:10206000002F04D04FF4F27135A009F0F1FB206A83
:1020700038B1B0F5003F04D031A040F2E51109F0CD
:10208000E7FB94F84100002510B106E0012070BD87
:10209000204684F8405000F073F8242084F8410072
:1020A0002068016821F001010160D4E9001020F0EE
:1020B000706008612068816821F400418160E068F7
:1020C00021680128A06806D040F404408860E068D8
:1020D000022803D006E040F40040F7E721684FF4FF
:1020E0000060486020212068234A4368134343600E
:1020F0002068C26822F40042C26054F8106B0DCC14
:10210000104340EA0320F06054F81C3CD4E900027C
:102110001043186054F81C0D026842F0010202607E
:10212000656484F84110256384F84250002070BD36
:102130000054004000580040005C0040001C005863
:102140002E2E2F447269766572732F53544D33329D
:10215000483778785F48414C5F4472697665722FE2
:102160005372632F73746D3332683778785F6861A8
:102170006C5F6932632E63000080000270470000CC
:102180002DE9F04186B0074614216846FEF7ECF8C9
:1021900030493868884259D12F48016841F002011E
:1021A000016000680024122100F002000590C020A8
:1021B00004228DE8130029486946CDE90342FFF760
:1021C000F9FB25480830016841F4001101600068FE
:1021D0002122234E4FF48068224900F4001005901C
:1021E000304686E81600C6E903487461B461F461BC
:1021F00034627462FFF724F808B1FEF7C2FB184D91
:102200002222184940237835FE633031B7632846CF
:1022100085E81E016C61AC61EC612C626C62FFF7B9
:102220000FF808B1FEF7ADFB0022BD631F20114679
:10223000AF6300F049F91F2000F014F900222020BC
:10224000114600F041F9202000F00CF906B0BDE87D
:10225000F081000000540040E0440258000402589D
:102260002C010020100002407047704770B5040038
:102270003BD02B492068884203D0A62129A009F031
:10228000E7FA606878B101280DD002280BD0032846
:1022900009D0042807D0052805D0062803D0A72197
:1022A00020A009F0D5FAA0684FF48055A84203D3C6
:1022B000A8211CA009F0CCFAE068A84203D3A92108
:1022C00018A009F0C5FA22684CF6CC4145F25550E9
:1022D000116021680860D4E9000141602168A068AC
:1022E0008860FFF74DFD054609E0012070BD00BF85
:1022F000FFF746FD401B302801D9032070BD206840
:10230000C0680028F4D12068E16802698A4201D0DF
:10231000016102E04AF6AA210160002070BD0000C0
:10232000004800582E2E2F447269766572732F5321
:10233000544D3332483778785F48414C5F44726976
:102340007665722F5372632F73746D3332683778EA
:10235000785F68616C5F697764672E6300000000D6
:1023600001684AF6AA200860002070470248816888
:10237000027811448160704700000020032010B5EE
:1023800000F0F0F801F0B2FB0E490F4A0F4B0C6859
:10239000C4F30324145D04F01F04E04018600968CE
:1023A00001F00F01515C01F01F01C84008490860AD
:1023B000002000F00FF808B1012010BD00F044F833
:1023C000002010BD18440258D8B900080C000020A5
:1023D0001000002010B50022014637208AB000F01E
:1023E00073F8372000F03EF81348016841F02001EF
:1023F0000160006808A900F020000990684601F01B
:102400000DFB01F04FFB0D4900220D4B40F2E7346C
:10241000B0FBF1F10B480360C0E90342491EC0E97B
:10242000011202F00BFB10B101200AB010BD0548EB
:1024300002F0D6FBF9E70000E844025840420F00E2
:1024400000140040C8060020054808B5016841F0A6
:1024500002010160006800F00200009008BD000069
:10246000F444025810B5040003D5BE2107A009F0BA
:10247000EFF9002C09DB60090121800004F01F0244
:1024800000F1E0209140C0F8001110BD2E2E2F4425
:102490007269766572732F53544D333248377878AA
:1024A0005F48414C5F4472697665722F5372632FA7
:1024B00073746D3332683778785F68616C5F636F0F
:1024C000727465782E63000070B5102A14460D46AC
:1024D000064603D3AA2113A009F0BAF9102D03D39D
:1024E000AB2110A009F0B4F91D480068C0F3022325
:1024F000C3F10702042A00D90422181D072801D2BB
:10250000002300E0DB1E012101FA02F09940401E89
:102510002840491E9840214001433046BDE87040A4
:1025200007F02EBC2E2E2F447269766572732F53DE
:10253000544D3332483778785F48414C5F44726974
:102540007665722F5372632F73746D3332683778E8
:10255000785F68616C5F636F727465782E630000EA
:102560000CED00E070B5072804460BD0062C09D00E
:10257000052C07D0042C05D0032C03D0922108A0F1
:1025800009F066F9154904F007024FF6FF050868DF
:10259000134B284040EA02201843086070BD000039
:1025A0002E2E2F447269766572732F53544D333239
:1025B000483778785F48414C5F4472697665722F7E
:1025C0005372632F73746D3332683778785F686144
:1025D0006C5F636F727465782E6300000CED00E031
:1025E0000000FA0570B50228044605D0012C03D07E
:1025F000EF2113A009F02CF920480168490706D4FF
:10260000016801F00701A14201D0012070BD0168FD
:1026100021F0070121430160FFF7B2FB174D4FF492
:102620007A760446083D06E0FFF7AAFB001BB0429D
:1026300001D9032070BD28688004F5D5002070BD45
:102640002E2E2F447269766572732F53544D333298
:10265000483778785F48414C5F4472697665722FDD
:102660005372632F73746D3332683778785F6861A3
:102670006C5F7077725F65782E6300000C480258BB
:1026800010B501F033FA064A06491268064BC2F348
:1026900003229A5C02F01F02D040086010BD0000C7
:1026A000184402580C000020D8B9000810B501F0F9
:1026B000E3F905490968054AC1F30211515C01F0CB
:1026C0001F01C84010BD000020440258D8B90008BE
:1026D000494930B5484C0B1D0A68143409681D6817
:1026E000246802F0030305F01002C1F30531C4F3BE
:1026F000CC04002914FB02F200EE102AF8EE400A86
:1027000075D03F4A9FED3D1AB7EE000A6BB1DFED81
:102710003D1A012B01D0022B64D002EE101A116871
:10272000F8EE422A81EEA22A21E0334C283C2368AD
:102730009B0612D5344B246801EE901A1168C4F33D
:10274000C104F8EE612AE34001EE903AC1F30801BA
:10275000F8EE611A81EEA22A0BE001EE901ADFED8D
:102760002B2A00BFF8EE611A116882EEA12AC1F38C
:10277000080101EE901A1168F8EE611A40EE811A14
:1027800071EE800A62EE200AC1F3462101EE101AB2
:10279000B8EE411A31EE001AC0EE811ABCEEE11A11
:1027A00080ED001A1168C1F3064101EE101AB8EE6F
:1027B000411A31EE001AC0EE811ABCEEE11A80ED2A
:1027C000011A1168C1F3066101EE101AB8EE411A40
:1027D00031EE000A80EE801ABCEEC10A80ED020ADA
:1027E00030BD04E001EE901ADFED092ABAE70021BE
:1027F000016041608160F3E728440258000000391D
:10280000384402580024744A0090D0030024744CC9
:1028100020BCBE4B494930B5484C0B1D0A681C34DE
:1028200009681D68246802F0030305F48072C1F38F
:102830000551C4F3CC04002914FB02F200EE102A67
:10284000F8EE400A75D03F4A9FED3D1AB7EE000AF8
:102850006BB1DFED3D1A012B01D0022B64D002EEEB
:10286000101A1168F8EE422A81EEA22A21E0334CB8
:10287000283C23689B0612D5344B246801EE901A3D
:102880001168C4F3C104F8EE612AE34001EE903A06
:10289000C1F30801F8EE611A81EEA22A0BE001EE05
:1028A000901ADFED2B2A00BFF8EE611A116882EE54
:1028B000A12AC1F3080101EE901A1168F8EE611A1D
:1028C00040EE811A71EE800A62EE200AC1F34621C1
:1028D00001EE101AB8EE411A31EE001AC0EE811A5C
:1028E000BCEEE11A80ED001A1168C1F3064101EE59
:1028F000101AB8EE411A31EE001AC0EE811ABCEE81
:10290000E11A80ED011A1168C1F3066101EE101A97
:10291000B8EE411A31EE000A80EE801ABCEEC10A10
:1029200080ED020A30BD04E001EE901ADFED092AC5
:10293000BAE70021016041608160F3E72844025852
:1029400000000039404402580024744A0090D0032B
:102950000024744C20BCBE4B2DE9FC5F044650F8AB
:10296000241B002500902E460801FE4FDFF8F89347
:102970001DD5606E50B1B0F5801F0CD0B0F5001FB2
:102980000ED0B0F5401F1DD001250FE0386840F48F
:102990000030386016E00221201D06F039FD03E00A
:1029A0000098022106F02CFE05000BD02E46208850
:1029B000C00523D5606D05281ED2DFE800F00C119C
:1029C000161B1B00626ED9F8001021F44011114350
:1029D000C9F80010EBE7386840F40030386009E0CF
:1029E0000021201D06F014FD03E00098002106F0F0
:1029F00007FE05466DB100E001252E4620888005C2
:102A000028D5A06D80281ED00CDC90B140280ED1B6
:102A100014E0626DD9F8001021F007011143C9F8E4
:102A20000010EBE7C02813D0B0F5807F10D001254F
:102A30000FE0386840F40030386009E00021201DC4
:102A400006F0E6FC03E00098002106F0D9FD0546FB
:102A500095B12E462088DFF81083400508F108085C
:102A60002CD5D4F8A400B0F5800F20D00DDCA0B197
:102A7000B0F5001F0FD115E0A26DD9F8001021F4B8
:102A8000E0711143C9F80010E4E7B0F5C00F13D0AE
:102A9000B0F5000F10D001250FE0386840F4003089
:102AA000386009E00021201D06F0B2FC03E0009828
:102AB000002106F0A5FD054675B12E4620880005CB
:102AC0002DD5D4F8A800B0F1007F21D00EDCA8B13C
:102AD000B0F1807F10D116E0D4F8A420D8F800100F
:102AE00021F460011143C8F80010E7E7B0F1407F1E
:102AF00013D0B0F1806F10D001250FE0386840F49A
:102B00000030386009E00021201D06F081FC03E060
:102B10000098002106F074FD05466DB12E46206830
:102B200080011FD5A06CD8B110280FD0202812D05A
:102B3000302815D0012514E0D4F8A820D8F80010CA
:102B400021F0E0611143C8F80010E8E7386840F46C
:102B50000030386004E00221201D06F059FC0546D3
:102B60006DB12E462088C0042BD5E06DB0F5005F16
:102B700020D00DDCA0B1B0F5805F0FD115E07A4810
:102B8000A26C001F016821F0300111430160E9E7E8
:102B9000B0F5405F13D0B0F5804F10D001250FE0A5
:102BA000386840F40030386009E00021201D06F04C
:102BB0002FFC03E00098002106F022FD054685B1B8
:102BC0002E462088800429D5206EB0F5403F23D0C2
:102BD00010DC08B3B0F5803F14D0B0F5003F0FD142
:102BE00015E0E26DD9F8001021F4E0411143C9F875
:102BF0000010E6E7B0F5802F0ED0B0F5A02F0BD077
:102C000001250AE00121201D06F002FC03E00098E6
:102C1000012106F0F5FC05468DB12E4620884004C2
:102C20002AD5D4F8AC00B0F1405F23D010DC08B353
:102C3000B0F1805F14D0B0F1005F0FD115E0226ECB
:102C4000D9F8001021F4E0211143C9F80010E5E79C
:102C5000B0F1804F0ED0B0F1A04F0BD001250AE0AB
:102C60000121201D06F0D4FB03E00098012106F0AD
:102C7000C7FC05466DB12E46208800041FD5E06EC6
:102C8000D8B1B0F1805F0ED0B0F1005F10D0012557
:102C900014E0D4F8AC20D8F8001021F0E041114342
:102CA000C8F80010E8E7386840F40030386004E005
:102CB0000121201D06F0ACFB05466DB12E462068B3
:102CC000C0011ED5606CD0B101280ED0022811D0F1
:102CD000032814D0012513E0E26ED9F8001021F08A
:102CE00040511143C9F80010E9E7386840F400305A
:102CF000386004E00221201D06F08AFB0546ADB3D2
:102D00002E462068DFF85CB04002ABF11C0B7DD58D
:102D1000D4F8B000B0F5807F79D0B0F5007F76D0E0
:102D2000B0F50C5F73D0B0F54C5F70D0B0F5864F46
:102D30006DD0B0F5A64F6AD0B0F5C64F67D0B0F5EC
:102D4000E64F64D0B0F5034F61D0B0F5134F5ED0BD
:102D5000B0F5234F5BD0B0F5334F58D0B0F5434FAB
:102D600055D004E02C44025850440258A9E0B0F574
:102D7000534F4CD0B0F5634F49D0B0F5734F46D0A8
:102D8000F749884243D0F749884240D0F649884203
:102D90003DD0F64988423AD0F549884237D0F549C6
:102DA000884234D0F449884231D0F44988427FD0F7
:102DB000F34988427CD0F349884279D0F24988426D
:102DC00076D0F249884273D0F149884270D0F149F7
:102DD00088426DD0F04988426AD0F049884267D075
:102DE000EF49884264D0EF49884261D0EE49884279
:102DF0005ED0EE4988425BD0ED49884258D0ED491B
:102E0000884255D0EC49884252D001E0A0E04FE022
:102E1000EA4988424CD0EA49884249D0E949884287
:102E200046D0E949884243D0E849884240D0E84941
:102E300088423DD0E74988423AD0E749884237D0B6
:102E4000E649884234D0E649884231D0E549884293
:102E50002ED0E54988422BD0E449884228D0E44965
:102E6000884225D0E349884222D0E34988421FD0D6
:102E7000E24988421CD0E249884219D0E14988429F
:102E800016D0E149884213D0E049884210D0E04989
:102E900088420DD0DF4988420AD0DF49884207D0F6
:102EA000DE49884204D04FF42F71DDA008F0D0FC39
:102EB000EA48016841F480710160FEF761FF8246D3
:102EC0000EE0E748626C016821F0030111430160E4
:102ED00017E700BFFEF754FFA0EB0A00642835D8BF
:102EE000DE480068C005F5D58DBBDFF874A3B4F8E3
:102EF000B0100AF1240ADAF8000001F4407100F47D
:102F00004070884211D0DAF80010DAF8002021F47D
:102F1000407142F48032CAF80020DAF8002022F42E
:102F20008032CAF80020CAF80010D4F8B000B0F51A
:102F3000807F22D1FEF724FF01901AE0FEF720FFE8
:102F40000199411A41F28830814212D903252E4657
:102F50002078DFF80CA3C0070AF1080A3DD0A06F63
:102F6000182838D026DC80B3082829D0102825D18D
:102F70002CE0DAF800008007E0D5D4F8B010C1F3F7
:102F80000120032858460DD0016821F47C510160CE
:102F9000B4F8B020DAF80010C2F30B021143CAF8FB
:102FA0000010D5E7AF4A036802EA111223F47C51FE
:102FB0001143ECE720280ED028280CD001250BE087
:102FC0000121201D06F024FA04E004E0009801210C
:102FD00006F016FB05465DB12E46207880071ED50B
:102FE000606F062819D2DFE800F0160C11161616CD
:102FF000A26FDAF8001021F038011143CAF800106E
:10300000EBE70121201D06F003FA03E000980121FF
:1030100006F0F6FA054675B100E001252E46207847
:1030200040071FD5D4F89000062819D2DFE800F039
:10303000160C11161616626FDAF8001021F007014F
:103040001143CAF80010EAE70121201D06F0E0F95B
:1030500003E00098012106F0D3FA05469DB100E097
:1030600001252E46207880062BD5D4F88C00B0F1AF
:10307000405F24D011DC10B3B0F1805F15D0B0F107
:10308000005F10D116E0D4F89020D8F8001021F09D
:1030900007011143C8F80010E4E7B0F1804F0ED0EB
:1030A000B0F1A04F0BD001250AE00021201D06F051
:1030B000AFF903E00098022106F0A2FA05468DB1AF
:1030C0002E46207840062BD5D4F89800B0F5406FF6
:1030D00024D011DC10B3B0F5806F15D0B0F5006FBF
:1030E00010D116E0D4F88C20DAF8001021F0E0417D
:1030F0001143CAF80010E4E7B0F5805F0ED0B0F5D8
:10310000A05F0BD001250AE00021201D06F080F908
:1031100003E00098022106F073FA05468DB12E46B1
:103120002078000618D5D4F89C00B0F5C04F12D016
:1031300013DC80B1B0F5005F10D0B0F5804F0ED138
:103140009FE0D4F89820D8F8001021F4E051114302
:10315000C8F80010E4E799E09AE085E08CE089E0A7
:1031600000030100001301000023010000330100EF
:1031700000430100005301000063010000730100DF
:10318000008301000093010000A3010000B30100CF
:1031900000C3010000D3010000E3010000F30100BF
:1031A00000030200001302000023020000330200AB
:1031B000004302000053020000630200007302009B
:1031C000008302000093020000A3020000B302008B
:1031D00000C3020000D3020000E3020000F302007B
:1031E0000003030000130300002303000033030067
:1031F0000043030000530300006303000073030057
:10320000008303000093030000A3030000B3030046
:1032100000C3030000D3030000E3030000F3030036
:103220002E2E2F447269766572732F53544D3332AC
:10323000483778785F48414C5F4472697665722FF1
:103240005372632F73746D3332683778785F6861B7
:103250006C5F7263635F65782E63000000480258FC
:103260004C440258CFFFFF00B0F5004F0ED0B0F530
:10327000204F0BD001250AE00021201D06F0C8F8E0
:1032800003E00098022106F0BBF90546F5B32E468F
:10329000207800071FD5D4F88000B0F5805F57D0A4
:1032A000B0F5005F0ED068B1B0F5405F0AD040F2D3
:1032B0003A41AFF2940008F0CBFAD4F88000B0F5B0
:1032C000805F45D0D4F88020DAF8001021F4405116
:1032D0001143CAF800102078C00621D5D4F8940014
:1032E000B0F5807F3CD0B0F5007F0ED068B1B0F56E
:1032F000405F0AD040F24F41AFF2DC0008F0A8FA7C
:10330000D4F89400B0F5807F2AD000E016E0D4F81D
:103310009420D8F8001021F440711143C8F800102F
:103320002068000330D5D4F8A00008B3B0F5803F82
:1033300023D0B0F5003F25D0012524E0D4F89C200F
:10334000D8F8001021F460411143C8F800109FE73D
:103350000098022106F054F90028BCD00126BAE7F3
:103360000098022106F04CF90028D9D00126D7E7B1
:103370000021201D06F04CF803E00098022106F021
:103380003FF9054685B12E462068400322D5D4F882
:103390008400B0F5801F11D0B0F5001F13D0B0F538
:1033A000401F15D0012514E0D4F8A020D8F8001053
:1033B00021F440311143C8F80010E5E7386840F4C3
:1033C0000030386004E00098012106F019F9054644
:1033D000ADB12E462068C00327D5E06C40B1B0F5F2
:1033E000803F05D040F2B741AFF2CC1008F030FA80
:1033F000E06C70B1B0F5803F10D0012514E0D4F836
:103400008420DAF8001021F440111143CAF80010AA
:10341000E0E7386840F40030386004E00221201D05
:1034200005F0F6FF0546CDB12E462068800005D593
:103430000098022106F0E4F800B10126206880031C
:103440001AD5E06FB0B1B0F5807F0FD0B0F5007F36
:1034500010D0B0F5407F0DD001250CE04B48E26C58
:10346000016821F4803111430160DEE7386840F4DF
:1034700000303860F5B32E462068C00212D5206FA8
:1034800040B1B0F1004F05D040F21651AFF27020BC
:1034900008F0DEF9226FD9F8001021F00041114345
:1034A000C9F800102068C00014D5D4F8B40040B1A9
:1034B000B0F5804F05D04FF4A461AFF29C2008F026
:1034C000C7F9D4F8B420DBF8001021F4804111438F
:1034D000CBF800102068800214D5A06E40B1B0F186
:1034E000807F05D040F22A51AFF2CC2008F0B0F92D
:1034F000A26E00E03EE0D9F8001021F08071114387
:10350000C9F800102068400018D5D4F8B80040B1C0
:10351000B0F5004F05D040F23451AFF2FC2008F076
:1035200097F9DBF8001021F40041CBF80010DBF82C
:103530000010D4F8B8201143CBF800102068002800
:1035400014DA206D58B1B0F1805F08D0B0F1005F9F
:1035500005D040F23E51AFF2383008F079F90B480F
:10356000226D016821F04051114301605EB10120DC
:10357000BDE8FC9FE26FDAF8001021F440711143BE
:10358000CAF8001078E70020F2E700004C44025827
:103590002DE9F05F04000D467ED02068401E3E28D5
:1035A00004D9FFA040F2523108F052F915B3012DB1
:1035B00020D0022D1ED0032D1CD0042D1AD0052D95
:1035C00018D0062D16D0072D14D0082D12D0092D95
:1035D00010D00A2D0ED00B2D0CD00C2D0AD00D2D95
:1035E00008D00E2D06D00F2D04D0EDA040F253319F
:1035F00008F02EF9DFF8E083D8F8000000F00F00A3
:10360000A8420CD2D8F8001021F00F012943C8F8C5
:103610000010D8F8000000F00F00A8423CD120783C
:10362000EE4E400719D52069316801F070018842DB
:1036300013D960B140280AD0502808D0602806D09D
:10364000702804D0D6A040F26E3108F001F921694B
:10365000306820F07000084330602078DF4F3F1D55
:1036600000071BD56069396801F07001884215D9DF
:1036700060B140280AD0502808D0602806D07028B1
:1036800004D04FF45E71C6A008F0E2F861693868B2
:1036900020F07000084300E00DE138602078C0069B
:1036A0001DD5A069396801F4E061884217D980B15D
:1036B000B0F5806F0DD0B0F5A06F0AD0B0F5C06F37
:1036C00007D0B0F5E06F04D0B5A040F2823108F029
:1036D000BFF8A169386820F4E060084338602078BA
:1036E000DFF8F8A280060AF1080A1CD5E069DAF8CA
:1036F000001001F07001884215D960B140280AD04D
:10370000502808D0602806D0702804D04FF4637188
:10371000A3A008F09DF8E269DAF8001021F070012A
:103720001143CAF800102078800721D5E06831687D
:1037300001F00F0188421BD9A0B1082812D0092836
:1037400010D00A280ED00B280CD00C280AD00D2837
:1037500008D00E2806D00F2804D091A040F297314F
:1037600008F076F8E168306820F00F000843306018
:103770002078C00769D0A068E0B1B0F5006F19D01B
:10378000B0F5106F16D0B0F5206F13D0B0F5306FD4
:1037900010D0B0F5406F0DD0B0F5506F0AD0B0F535
:1037A000606F07D0B0F5706F04D07DA040F29F31FC
:1037B00008F04EF86068012809D040B1022806D010
:1037C000032804D04FF4687175A008F041F88349CC
:1037D000A2683068183920F4706010433060606867
:1037E000022816D0032817D00968012817D04907E6
:1037F000002960DADFF8E4B1ABF1080BDBF8002058
:1038000022F007020243CBF80020FEF7B9FA814606
:1038100013E009688903EBE709688901E8E7C9054E
:10382000E6E700BFFEF7ACFAA0EB090141F28830F1
:10383000814202D90320BDE8F09F6168DBF80000F7
:1038400000F03800B0EBC10FECD12078800721D513
:10385000E068316801F00F0188421BD2A0B108284E
:1038600012D0092810D00A280ED00B280CD00C2812
:103870000AD00D2808D00E2806D00F2804D04FF407
:10388000777147A007F0E4FFE168306820F00F008F
:1038900008433060D8F80010404601F00F01A942FB
:1038A0000BD9016821F00F0129430160006800F085
:1038B0000F00A84201D00120BDE72078400719D5AC
:1038C0002069316801F07001884213D260B140284C
:1038D0000AD0502808D0602806D0702804D04FF4B1
:1038E0007D712FA007F0B4FF2169306820F07000CF
:1038F000084330602078000719D56069396801F005
:103900007001884213D260B140280AD0502808D0F4
:10391000602806D0702804D021A040F2FE3107F0C4
:1039200097FF6169386820F070000843386020789C
:10393000C0061DD5A069396801F4E061884217D23C
:1039400080B1B0F5806F0DD0B0F5A06F0AD0B0F5A2
:10395000C06F07D0B0F5E06F04D011A04FF48161C3
:1039600007F076FFA169386820F4E060084338600A
:10397000207880063DD5E0695546DAF8001001F060
:103980007001884235D258B340282CD050282AD014
:10399000602828D0702826D001A040F2124120E0F3
:1039A0002E2E2F447269766572732F53544D333225
:1039B000483778785F48414C5F4472697665722F6A
:1039C0005372632F73746D3332683778785F686130
:1039D0006C5F7263632E630000200052184402582B
:1039E00001E007F035FFE169286820F07000084326
:1039F000286000F07BF83168064AC1F30321515C6E
:103A000001F01F01C840044908600020BDE8F05FD4
:103A1000FEF7E0BCD8B900080C00002070B5144CCB
:103A20003F220260124A24680832131D114D04F02F
:103A30000704446016681C1D06F4706686601668EC
:103A400006F00F06C660126802F0700202611A6882
:103A500002F0700242611A6802F4E0628261226838
:103A600002F07002C261286800F00F00086070BDAB
:103A7000104402580020005210B5FEF701FE064A1D
:103A800006491268064B02F00F029A5C02F01F0210
:103A9000D040086010BD00001844025810000020FB
:103AA000D8B9000810B5FFF7E7FF05490968054ACE
:103AB000C1F30211515C01F01F01C84010BD0000AC
:103AC0001C440258D8B9000810B5FFF7D5FF0549C6
:103AD0000968054AC1F30221515C01F01F01C84089
:103AE00010BD00001C440258D8B90008454970B503
:103AF00045480968434B103B11F0380208D00111CA
:103B0000082A03D0102A0BD0182A0BD0084670BD03
:103B100019688906FBD51968C1F3C101C84070BD99
:103B20003A4870BD3749374D18310C1D24350A68A5
:103B3000096826682D6802F0030406F00102C1F34B
:103B40000511C5F3CC0515FB02F200EE102AB8EE04
:103B5000400AE9B32F4ADFED2E0AB7EE001A6CB126
:103B6000DFED2D1A012C01D0022C43D002EE101AE9
:103B70001068F8EE422A81EEA22A1EE01C68A40614
:103B800011D51B6801EE901A1168C3F3C103F8EE5A
:103B9000612AD84001EE900AC1F30800F8EE611ADC
:103BA00081EEA22A0BE001EE901ADFED1C2A00BF85
:103BB000F8EE611A106882EEA12AC0F3080001EE47
:103BC000900AF8EE611A40EE201A31EE810A00E008
:103BD00015E022EE000A1068C0F34620401C00EEFB
:103BE000900AF8EE600A80EE201ABCEEC10A10EED0
:103BF000100A70BD01EE901ADFED092AD8E7002007
:103C000070BD0000104402580090D00340787D0140
:103C100000000039304402580024744A0024744CD7
:103C200020BCBE4B2DE9F05F04006FD0FF4E41F287
:103C30000308DFF8F893FD4FA6F10405206809F1A9
:103C40000C09243780B1C10711D181076CD4C1069A
:103C50007DD401077CD441077BD480067AD44FF40D
:103C6000B871F3A007F0F4FD2078C00759D0606860
:103C70004FF4803A4FF4A02B40B1504506D0584540
:103C800004D0EBA040F2751107F0E2FDD9F8000076
:103C9000396800F0380010280CD0182803D101F042
:103CA0000300022806D0606850450AD1286840F415
:103CB000803010E02868800333D560680028B4D0D5
:103CC0002FE008B158450DD0286820F480302860D6
:103CD000286820F480202860606898B1FEF750F8CA
:103CE00082460BE0286840F480202860DEE700BFB1
:103CF000FEF746F8A0EB0A0064286ED82868800317
:103D0000F6D50EE0FEF73CF8824607E03EE100BF44
:103D1000FEF736F8A0EB0A006428EED82868800386
:103D2000F6D4207880077CD5E06860B101280AD0FD
:103D3000092808D0112806D0192804D0BCA040F2C8
:103D4000A91107F085FD20697F2809D903E06BE000
:103D5000D5E0F4E00AE1B6A04FF4D57107F078FDA4
:103D6000D9F80000396810F038000ED0182801D1B9
:103D700088070AD0E06878B3296821F01901014367
:103D80002960FDF7FDFF82462EE02868400702D536
:103D9000E068002893D0E168286820F01900084303
:103DA0002860FDF7EDFF824606E000BFFDF7E8FF63
:103DB000A0EB0A000228A0D828684007F6D500BF6B
:103DC000FDF7D8FF404513D82069316821F47C31D4
:103DD00041EA0030306024E011E05AE2FDF7D0FF04
:103DE000A0EB0A00022888D828684007F6D5E7E744
:103DF000207C316821F0FE4141EA0060EAE7286852
:103E000020F001002860FDF7BBFF824606E000BFFE
:103E1000FDF7B6FFA0EB0A000228CCD828684007BF
:103E2000F6D42078C00667D5E06930B1802804D088
:103E30007FA04FF4FD7107F00BFD206A1F2804D905
:103E40007BA040F2FB1107F003FDD9F80000DFF87A
:103E5000DCB1396800F038000BF1080B082810D0ED
:103E6000182803D101F0030001280AD0E0690028D6
:103E7000286831D040F080002860FDF781FF82463D
:103E800022E02868C00522D5E06980287ED11EE0A6
:103E900094F82000316821F0F84141EA80603060F8
:103EA0002AE000BF94F82010DBF8002022F07C52BA
:103EB00042EA0161CBF800101EE000BFFDF760FF91
:103EC000A0EB0A0002288ED82868C005F6D5FDF7B9
:103ED00051FF4045E6D8DBE720F080002860FDF781
:103EE0004FFF064605E000BFFDF74AFF801B022892
:103EF00093D82868C005F7D42078000733D54B4EF7
:103F000060697036E0B1012806D04FF40F7148A007
:103F100007F09EFC606998B13168B04641F001013C
:103F20003160FDF72DFF064605E000BFFDF728FFD5
:103F3000801B0228C7D8D8F800008007F6D512E009
:103F40003168B04621F001013160FDF719FF0646E6
:103F500005E000BFFDF714FF801B0228B3D8D8F896
:103F600000008007F6D4207880062FD5A069E0B144
:103F7000012806D02EA040F2672107F069FCA06955
:103F800098B1286840F48050286000E02FE1FDF7E8
:103F9000F7FE064605E000BFFDF7F2FE801B022893
:103FA00091D828688004F7D510E0286820F4805064
:103FB0002860FDF7E5FE064605E000BFFDF7E0FEE0
:103FC000801B022894D828688004F7D42078400702
:103FD00079D5A06840B1012806D0052804D014A0E6
:103FE00040F2912107F034FCDFF87C80D8F8001013
:103FF00041F48071C8F80010FDF7C2FE064604E0E7
:10400000FDF7BEFE801B642894D8D8F80000C005D8
:10401000F6D5064EA0686C3601282BD008B10528CD
:1040200034D0306820F0010030601FE004440258B2
:104030002E2E2F447269766572732F53544D33328E
:10404000483778785F48414C5F4472697665722FD3
:104050005372632F73746D3332683778785F686199
:104060006C5F7263632E630000480258306820F072
:10407000040002E0306840F001003060A06841F2C6
:10408000883A98B1FDF77CFE80460BE0306840F03E
:1040900004003060EEE700BFFDF772FEA0EB080100
:1040A00051458FD830688007F6D50CE0FDF768FEE3
:1040B000804605E0FDF764FEA0EB08015145A3D85A
:1040C00030688007F6D4606A002870D001280AD0D2
:1040D000022808D040F2C321AFF2AC0007F0B8FBD1
:1040E000606A0028F1D0D9F80000C0F3C2000328AC
:1040F0007DD0606A022807D0286820F08070286090
:10410000FDF73EFE0446C7E0A06A01280AD048B188
:10411000032807D0022805D04FF43371AFF2F00026
:1041200007F096FBE06A401E3E2805D940F2CD21FB
:10413000AFF2041007F08CFB206B001FB0F5FE7F80
:1041400005D940F2CE21AFF2181007F081FB606B69
:10415000401E7F2805D940F2CF21AFF22C1007F086
:1041600077FBA06B401E7F2805D94FF43471AFF266
:10417000401007F06DFBE06B401E7F2805D940F230
:10418000D121AFF2541007F063FBA06CB0F5005FD3
:1041900005D340F2D221AFF2681007F059FB28682E
:1041A00020F080702860FDF7EBFD064605E076E024
:1041B000FDF7E6FD801B02286BD828688001F7D444
:1041C000E26A40F2F331386854F8283F884340EA05
:1041D000021018433860217B4FF4FE0C22894FF007
:1041E000FE47208A4902267D2F4B521E00E058E0F0
:1041F000A1F5007189B2401EC2F308021143761E78
:104200000CEA0040014307EA0662181F11431960D7
:104210001A1D016821F00101016011684FF6F8765E
:10422000236AB14341EAC30111600168A26921F028
:104230000C01114301600168E26921F002011143A0
:104240000160016841F480310160016841F400318E
:104250000160016841F480210160016841F00101C1
:104260000160286840F080702860FDF789FD0446F1
:1042700005E000BFFDF784FD001B022809D828686F
:104280008001F7D50BE000BFFDF77AFD001B022887
:1042900002D90320BDE8F09F28688001F4D40020F3
:1042A000F8E70120F6E70000304402582DE9F05FFE
:1042B00004007DD0C34D2068C34EC44FA84210D027
:1042C000B0420ED0B8420CD0C149884209D0C14991
:1042D000884206D0C049884203D0F621BFA007F02B
:1042E000B7FA606830B1B0F5800F03D0F721BBA0FA
:1042F00007F0AEFAA06860B1B0F5802F09D0B0F534
:10430000C02F06D0B0F5003F03D0F821B3A007F0CE
:104310009FFAE0681F283BD01E2839D01D2837D0CF
:104320001C2835D01B2833D01A2831D019282FD07B
:1043300018282DD017282BD0162829D0152827D09B
:10434000142825D0132823D0122821D011281FD0BB
:1043500010281DD00F281BD00E2819D00D2817D0DB
:104360000C2815D00B2813D00A2811D009280FD0FB
:1043700008280DD007280BD0062809D0052807D01B
:10438000042805D0032803D0F92194A007F060FA8F
:10439000E06B58B3202829D0402827D0602825D0AA
:1043A000802823D0A02821D0C0281FD0E02800E0FA
:1043B0009CE01BD0B0F5807F18D0B0F5907F15D071
:1043C000B0F5A07F12D0B0F5B07F0FD0B0F5C07FB0
:1043D0000CD0B0F5D07F09D0B0F5E07F06D0B0F5B5
:1043E000F07F03D0FA217DA007F032FAA0694FF0E8
:1043F000806B4FF00059584506D028B1484503D08E
:10440000FB2176A007F024FA606B4FF0804840450E
:1044100004D018B1FC2171A007F01AFAE069B0B11C
:10442000B0F1805F13D0484511D0B0F1405F0ED09D
:1044300040450CD0B0F1A04F09D0B0F1C04F06D02C
:10444000B0F1E04F03D0FD2164A007F001FA206A2B
:1044500030B1B0F5000F03D0FE2160A007F0F8F9ED
:10446000606A40B1B0F5002F19D0FF215BA007F0C2
:10447000EFF9606A98B9206938B1B0F1007F04D0D3
:1044800056A04FF4817107F0E3F9606938B1B0F1DB
:10449000807F04D051A040F2031107F0D9F92068C1
:1044A0004FF00009C4F82890A84206D0B04204D0CA
:1044B000B84202D0E1680F2918D8E1684FF0010A2C
:1044C000E36B0831C9080AEB53125143A84205D0E7
:1044D000B04203D0B84201D0082907D8A84203D07F
:1044E000B04201D0B84204D1102902D90120BDE860
:1044F000F09F94F8810020B9204684F8809000F065
:1045000089F8022084F881002068016821F0010107
:104510000160A06958450AD16068B0F5800F06D1E6
:10452000A06B20B92068016841F480510160A56A40
:10453000E0692368E16B2843E26808431043986010
:10454000D4E90D01D4E90582656A23691143D4F8E1
:1045500020C02843256808431843A36DD4E90161AE
:10456000D4E9122740EA080040EA0C0030433843FF
:10457000084310431843E860606868B920688168A0
:1045800021F4C05141F4006181602068816821F408
:10459000C06141F4806181602068016D21F00101FA
:1045A00001656068400206D52068626DC16821F02F
:1045B00000411143C160C4F8849084F881A00020B8
:1045C00095E700000030014000380040003C00400A
:1045D0000034014000500140001400582E2E2F449A
:1045E0007269766572732F53544D33324837787839
:1045F0005F48414C5F4472697665722F5372632F36
:1046000073746D3332683778785F68616C5F73708C
:10461000692E630070B586B0044614216846FBF726
:10462000A3FE1C492068884231D11B48016841F42F
:1046300080510160006800F48050059016481038E1
:10464000016841F008010160016801F0080105916D
:10465000016841F0400101600068002405266946B8
:1046600000F0400005908020009002250B48CDE925
:104670000154CDE90346FDF79DF970020090CDE9A4
:10468000015407486946CDE90346FDF793F906B0A2
:1046900070BD000000300140F0440258000C025888
:1046A0000018025870477047704700002DE9F04726
:1046B000674E054600680C46DFF89891B0420FD06F
:1046C00048450DD0644988420AD06449884207D0E1
:1046D0006349884204D063A040F2AA6107F0B8F8A9
:1046E0002068B0F5006F05D020B15EA040F2AB614C
:1046F00007F0AEF86068B0F5806F05D020B159A022
:1047000040F2AC6107F0A4F8A06868B1B0F5807F12
:104710000AD0B0F5007F07D0B0F5407F04D051A09B
:1047200040F2AD6107F094F8E068FF2804D94DA08D
:1047300040F2AE6107F08CF82069B0F5805F05D0DB
:1047400020B148A040F2AF6107F082F8606938B14B
:10475000B0F5005F04D04FF4D66142A007F078F8BE
:10476000A0690F2804D93FA040F2B16107F070F8AA
:10477000A06AB0F5804F05D020B13AA040F2B261F6
:1047800007F066F895F83C0001285ED0012085F816
:104790003C0054F80C2B4FF0000A94E8890054E9CF
:1047A000021C20F44070B4F80C8040EA0C00D4F8ED
:1047B0001CC020F480600843296820F40060104386
:1047C00020F4805040EA030020F4005040EA070043
:1047D00020F480400C3C40EA0C00B14220F47020F0
:1047E00040EA084601D0494528D1E069B0F1807F10
:1047F00005D020B11BA040F2C76107F029F8206A5C
:1048000038B1B0F1007F04D016A04FF4D96107F0A1
:104810001FF8606A0F2804D912A040F2C96107F09E
:1048200017F8A08C26F47003D4E9071243EA00506D
:1048300020F08070084320F00076164329684E640B
:10484000002085F83CA0BDE8F0870220FBE70000CF
:1048500000000140000401400040014000440140CC
:10486000004801402E2E2F447269766572732F53D3
:10487000544D3332483778785F48414C5F44726911
:104880007665722F5372632F73746D333268377885
:10489000785F68616C5F74696D5F65782E63000096
:1048A0002DE9F0474F4F044600680D46DFF8388188
:1048B000B84218D0B0F1804F15D04C49884212D080
:1048C0004B4988420FD04B4988420CD040450AD012
:1048D0004949884207D04949884204D048A040F25B
:1048E000676106F0B5FF286890B1102810D0202825
:1048F0000ED030280CD040280AD0502808D060288C
:1049000006D0702804D03EA04FF4CD6106F0A0FF81
:10491000A868802805D020B139A040F2696106F06E
:1049200097FF94F83C0001285AD04FF0010984F811
:104930003C90022184F83D1020684668B8428768A0
:1049400001D0404538D1686888B3B0F5801F2ED0BB
:10495000B0F5001F2BD0B0F5401F28D0B0F5800F68
:1049600025D0B0F5A00F22D0B0F5C00F1FD0B0F504
:10497000E00F1CD0B0F5000F19D0B0F5100F16D015
:10498000B0F5200F13D0B0F5300F10D0B0F5400FB8
:104990000DD0B0F5500F0AD0B0F5600F07D0B0F5CC
:1049A000700F04D016A040F27B6106F051FF6968D9
:1049B00026F4700041EA0006286826F07002266896
:1049C000A9681043002227F0800370601943206813
:1049D000816084F83D90104684F83C20BDE8F08763
:1049E0000220FBE7000001400004014000040040F9
:1049F00000080040000C004000180040004001404A
:104A00002E2E2F447269766572732F53544D3332B4
:104A1000483778785F48414C5F4472697665722FF9
:104A20005372632F73746D3332683778785F6861BF
:104A30006C5F74696D5F65782E63000010B50400CB
:104A400058D03648226882422BD0B2F1804F28D00D
:104A50003348824225D03348824222D032488242B3
:104A60001FD0324882421CD03148824219D031488E
:104A7000824216D03048824213D03048824210D051
:104A80002F4882420DD02F4882420AD02E488242BF
:104A900007D02E48824204D02DA040F2151106F016
:104AA000D7FEA06860B110280AD0202808D040287E
:104AB00006D0602804D026A04FF48B7106F0C8FE03
:104AC000206950B1B0F5807F07D0B0F5007F04D0E9
:104AD0001FA040F2171106F0BBFEA06930B180287C
:104AE00004D04FF48C711AA006F0B2FE94F83D0089
:104AF00010B107E0012010BD002084F83C002046E2
:104B000000F042F8022084F83D002068211D02F0E8
:104B100039FC012084F83D00002010BD0000014058
:104B20000004004000080040000C0040001000405D
:104B3000001400400004014000180040001C004028
:104B40000020004000400140004401400048014076
:104B50002E2E2F447269766572732F53544D333263
:104B6000483778785F48414C5F4472697665722FA8
:104B70005372632F73746D3332683778785F68616E
:104B80006C5F74696D2E630008B500681149884236
:104B900009D11148016841F001010160006800F08D
:104BA0000100009008BD0D498842FBD10A48083831
:104BB000016841F01001016000680022114600F018
:104BC000100000903620FDF77FFCBDE8084036203D
:104BD000FDF748BC00000140F044025800100040BE
:104BE00010B504462148216881422BD0B1F1804F95
:104BF00028D01F48814225D01E48814222D01E481D
:104C000081421FD01D4881421CD01D48814219D0CD
:104C10001C48814216D01C48814213D01B48814257
:104C200010D01B4881420DD01A4881420AD01A4840
:104C3000814207D01948814204D04FF4DE7118A098
:104C400006F006FE2068244AC16841F00101C160F7
:104C5000206881681140062906D0B1F5803F03D055
:104C6000016841F001010160002010BD0000014019
:104C70000004004000080040000C0040001000400C
:104C8000001400400004014000180040001C0040D7
:104C90000020004000400140004401400048014025
:104CA0002E2E2F447269766572732F53544D333212
:104CB000483778785F48414C5F4472697665722F57
:104CC0005372632F73746D3332683778785F68611D
:104CD0006C5F74696D2E6300070001002DE9F05FC1
:104CE000054690F83C000C4601283FD002210120E7
:104CF00085F83C0085F83D104FF4805B20685845EE
:104D000016D0B0F5005F13D090B1102810D0202835
:104D10000ED030280CD040280AD0502808D0602867
:104D200006D0702804D0D5A041F27C2106F090FD79
:104D300028684FF0804CDFF87C83DF498646DF4AE5
:104D400080684FF4004ADE4BDE4E00EA0800DE4F7A
:104D500020F47F48DFF87493CEF80880206870282C
:104D600053D011DC10F00F0F04D036E14FF00200E9
:104D7000BDE8F09F4FEA20100728F6D2DFE800F0E8
:104D800011111111FAC8FB00B0F1101F09D009DC94
:104D9000584510D04FF40058404578D0B0F5801FEA
:104DA000E3D153E12038B0F58010FAD01028F8D0C4
:104DB0002028DAD14AE128688842D6D06045D4D08C
:104DC0009042D2D09842D0D0B042CED0C049884292
:104DD000CBD0C0498842C8D0B842C6D0BE4988426C
:104DE000C3D0BE498842C0D0BD498842BDD04845E5
:104DF000BBD0BC498842B8D0BB498842B5D09FA03F
:104E000041F2882106F024FDE7E0286888420ED0B0
:104E100060450CD090420AD0984208D0B04206D0EB
:104E2000B84204D095A041F28F2106F011FDA06890
:104E300060B158450AD0B0F5005F07D0B0F5405FCB
:104E400004D08EA041F2922106F002FD6068504528
:104E500009D040B1022806D00A2804D087A041F228
:104E6000932106F0F5FCE0680F2804D983A041F2F5
:104E7000942106F0EDFCE3682868D4E9012102F0F2
:104E800061FB2868816841F077013FE0FFE728680F
:104E900088420ED060450CD090420AD0984208D08B
:104EA000B04206D0B84204D074A041F2A72106F067
:104EB000CFFCA06858B1584509D0404507D0B0F59F
:104EC000405F04D06DA041F2AA2106F0C1FC6068E9
:104ED000504509D040B1022806D00A2804D067A066
:104EE00041F2AB2106F0B4FCE0680F2804D963A0BE
:104EF00041F2AC2106F0ACFCE3682868D4E901215A
:104F000002F020FB2868816841F48041816064E000
:104F10002868884210D060450ED090420CD098424C
:104F20000AD0B04208D0B84206D0484504D053A0B9
:104F300041F2BB2106F08CFC6068504509D040B1BD
:104F4000022806D00A2804D04CA041F2BE2106F067
:104F50007FFCE0680F2804D948A041F2BF2106F089
:104F600077FCE2686168286805F0CCF82868502171
:104F700031E000E039E02868884210D060450ED06A
:104F800090420CD098420AD0B04208D0B84206D025
:104F9000484504D039A041F2CB2106F059FC6068A5
:104FA000504509D040B1022806D00A2804D033A0C9
:104FB00041F2CE2106F04CFCE0680F2804D92FA066
:104FC00041F2CF2106F044FCE2686168286805F0F0
:104FD000AAF82868602104F0A1FE012085F83D00B0
:104FE000002185F83C100846C2E62868884210D0A7
:104FF00060450ED090420CD098420AD0B04208D002
:10500000B84206D0484504D01CA041F2DB2106F08E
:105010001FFC6068504509D040B1022806D00A281C
:1050200004D016A041F2DE2106F012FCE0680F2841
:1050300004D912A041F2DF2106F00AFCE26861689F
:10504000286805F05FF828684021C4E7286888428E
:1050500010D060450ED090420CD098420AD0B04299
:1050600008D0B84206D0484504D004A041F2F3214C
:1050700006F0EEFB21682868ADE700002E2E2F44D5
:105080007269766572732F53544D3332483778788E
:105090005F48414C5F4472697665722F5372632F8B
:1050A00073746D3332683778785F68616C5F7469E8
:1050B0006D2E630088FFCEFF000001400004004019
:1050C00000080040000C0040000401400040014086
:1050D000001000400014004000180040001C004078
:1050E0000020004000440140004801402DE9F0410B
:1050F00005000C467ED0A86860B110280AD0202890
:1051000008D0402806D0602804D075A040F63C2185
:1051100006F09EFB286950B1B0F5807F07D0B0F54E
:10512000007F04D06EA040F63D2106F091FBA869F7
:1051300030B1802804D06AA040F63E2106F088FBFA
:1051400075492868884219D0B0F1804F16D073494C
:10515000884213D07249884210D0724988420DD0DB
:10516000714988420AD07149884207D07049884203
:1051700004D05BA040F63F2106F06AFB20680128BE
:1051800008D0022806D0032804D04FF4246154A08C
:1051900006F05EFBA068012808D0022806D003288C
:1051A00004D04FA040F6412106F052FBA06901282F
:1051B00008D0022806D0032804D049A040F6422196
:1051C00006F046FB606840B1022806D00A2804D0E9
:1051D00043A040F6432106F03BFB606940B1022842
:1051E00006D00A2804D03EA040F6442106F030FB49
:1051F000E06800E02CE050B1042808D0082806D070
:105200000C2804D036A040F6452106F021FBE069C9
:1052100050B1042808D0082806D00C2804D030A0AB
:1052200040F6462106F014FB20690F2804D92CA073
:1052300040F6472106F00CFB206A0F2804D928A06D
:1052400040F6482106F004FB95F83D0018B108E04F
:105250000120BDE8F081002085F83C00284600F0E0
:105260006BF8344A022085F83D00286881681140B7
:1052700081602868291D02F085F82A6840F203360B
:10528000A76940F60C4C23684FF2F00EA0689168B5
:105290000B439169B14341EA07210843D4E903175D
:1052A00020EA0C00D4E9076C20EA0E00D2F820E0D6
:1052B0003F0140EA062660686469314347EA0C37DB
:1052C00093602B680F4301229F612EF0AA0141EAEF
:1052D000041329681843086285F83D200020B8E7C8
:1052E0002E2E2F447269766572732F53544D3332CC
:1052F000483778785F48414C5F4472697665722F11
:105300005372632F73746D3332683778785F6861D6
:105310006C5F74696D2E6300000001400004004062
:1053200000080040000C004000040140001800404C
:1053300000400140F8BFFEFF70B586B0054614215D
:105340006846FBF711F8414900242B6802253F4AC3
:1053500008393F48B3F1804F14D03E4EB3423FD19D
:10536000136843F002031360126802F00202059210
:105370000A6842F001020A60096801F00101059122
:10538000C0215CE0136843F001031360126802F06F
:10539000010205920A6842F001020A600A6802F0FE
:1053A000010205920A6842F002020A6009680126B9
:1053B00001F00201059120210091CDE90154CDE9D0
:1053C00003466946FCF7F6FA08200090CDE901543F
:1053D00021486946CDE90346FCF7ECFA06B070BDFA
:1053E0001E4EB34217D1106840F0040010601068E0
:1053F00000F004000590086840F0080008600868A4
:10540000694600F0080005904FF4405000901448A1
:10541000CDE9015417E0134EB342DFD1136843F0D6
:1054200008031360126802F0080205920A6842F04D
:1054300001020A60096801F0010105910321009150
:10544000CDE901546946CDE90345C5E7E844025872
:105450000000025800040040000402580008004008
:10546000000C0258000C004070B5026804461B484E
:105470000D46824219D0B2F1804F16D018488242B0
:1054800013D01848824210D0174882420DD01748D6
:1054900082420AD01648824207D01648824204D07F
:1054A00015A040F6E22106F0D3F995B1042D04D001
:1054B00020680122002101F0C7FF20680122042199
:1054C00001F0C2FF2068016841F001010160002085
:1054D00070BD012220680021F2E7000000000140B9
:1054E0000004004000080040000C0040000401409F
:1054F00000180040004001402E2E2F44726976654E
:1055000072732F53544D3332483778785F48414C8B
:105510005F4472697665722F5372632F73746D33B3
:1055200032683778785F68616C5F74696D2E6300EC
:10553000704770B50446006800250169C9438907B2
:1055400015D4C168C943890711D4EA1E026101213B
:105550002177206880698007204602D0FFF7E8FFA6
:1055600004E000F007FA204600F0F1FC25772068FF
:105570000169C943490717D4C168C943490713D40E
:1055800002216FF00402026121772068806910F423
:10559000407F204602D0FFF7CBFF04E000F0EAF99D
:1055A000204600F0D4FC257720680169C94309072B
:1055B00016D4C168C943090712D404216FF0080248
:1055C000026121772068C0698007204602D0FFF77A
:1055D000AFFF04E000F0CEF9204600F0B8FC2577DC
:1055E00020680169C943C90617D4C168C943C906FF
:1055F00013D408216FF01002026121772068C0697E
:1056000010F4407F204602D0FFF792FF04E000F044
:10561000B1F9204600F09BFC257720680169C94359
:10562000C90708D1C168C943C90704D1891E0161EE
:10563000204600F059FD20680169C943090609D4D4
:10564000C168C943090605D46FF080010161204695
:10565000FFF729F820680169C943C90509D4C16861
:10566000C943090605D46FF4807101612046FFF734
:1056700019F820680169C943490609D4C168C943BA
:10568000490605D46FF040010161204600F058FD45
:1056900020680169C94389060BD4C168C9438906DA
:1056A00007D46FF0200101612046BDE87040FEF78D
:1056B000FBBF70BD10B586B0044614216846FAF7EA
:1056C00053FE0E492068884216D10D48016841F00A
:1056D0001001016000680123022200F01000059013
:1056E00000204FF4D44100916946CDE90120CDE975
:1056F00003030448FCF75EF906B010BD000001404A
:10570000E0440258001002582DE9F05F5FEA020AF7
:105710000D46044616D0BAF1040F13D0BAF1080FA3
:1057200010D0BAF10C0F0DD0BAF1100F0AD0BAF1A7
:10573000140F07D0BAF13C0F04D075A040F65551B4
:1057400006F086F82868A8B1102813D0202811D0B8
:1057500030280FD050280DD040280BD0B0F5803F16
:1057600008D0A0F58031103904D069A040F6565118
:1057700006F06EF8A86830B1022804D064A040F6A4
:10578000575106F065F894F83C0001281FD002201C
:105790004FF0010B84F83CB0BAF10C0F84F83D00D7
:1057A0004FF08048684B694E694FDFF8A8C16A49DD
:1057B00071D00FDCDFF8A491BAF1000F684A10D065
:1057C000BAF1040F34D0BAF1080F30D14BE0022007
:1057D000BDE8F09FBAF1100F75D0BAF1140FF4D1F3
:1057E00080E0206898421ED040451CD0B0421AD0BC
:1057F000B84218D0604516D0884214D0484512D01F
:10580000584988420FD0584988420CD090420AD05B
:105810005649884207D05649884204D03CA040F6F9
:10582000635106F015F82068294603F0E5FF67E0AC
:105830002068984212D0404510D0B0420ED0B842F5
:105840000CD060450AD0884208D0484506D0904226
:1058500004D02FA040F66D5105F0FAFF20682946CC
:1058600001F07AFE4CE0206898420ED040450CD002
:10587000B0420AD0B84208D0604506D0884204D071
:1058800023A040F6775105F0E3FF2068294604F095
:1058900043F835E0FFE7206898420ED040450CD031
:1058A000B0420AD0B84208D0604506D0884204D041
:1058B00017A040F6815105F0CBFF2068294604F07F
:1058C000AFF81DE0FFE72068984206D0884204D078
:1058D0000FA040F68B5105F0BBFF2068294604F06D
:1058E00001F90DE02068984206D0884204D008A053
:1058F00040F6955105F0ACFF2068294604F028F9E0
:10590000002184F83DB0084684F83C1060E70000B0
:105910002E2E2F447269766572732F53544D333295
:10592000483778785F48414C5F4472697665722FDA
:105930005372632F73746D3332683778785F6861A0
:105940006C5F74696D2E630000000140000400402C
:1059500000080040000C0040000401400018004016
:1059600000400140001C0040002000400044014075
:10597000004801407047000010B5040058D0364878
:10598000226882422BD0B2F1804F28D03348824225
:1059900025D03348824222D0324882421FD032483A
:1059A00082421CD03148824219D03148824216D0FE
:1059B0003048824213D03048824210D02F48824271
:1059C0000DD02F4882420AD02E48824207D02E485E
:1059D000824204D02DA040F2612105F039FFA06879
:1059E00060B110280AD0202808D0402806D06028AE
:1059F00004D026A040F2622105F02AFF206950B1B0
:105A0000B0F5807F07D0B0F5007F04D01FA040F232
:105A1000632105F01DFFA06930B1802804D04FF448
:105A200019711AA005F014FF94F83D0010B107E0B9
:105A3000012010BD002084F83C00204600F042F810
:105A4000022084F83D002068211D01F09BFC01200C
:105A500084F83D00002010BD00000140000400401B
:105A600000080040000C00400010004000140040FE
:105A70000004014000180040001C004000200040CD
:105A80000040014000440140004801402E2E2F44B8
:105A90007269766572732F53544D33324837787874
:105AA0005F48414C5F4472697665722F5372632F71
:105AB00073746D3332683778785F68616C5F7469CE
:105AC0006D2E6300704700002DE9F05F5FEA020A67
:105AD0000D46044616D0BAF1040F13D0BAF1080FE0
